{"abi":[{"type":"constructor","inputs":[{"name":"underlying","type":"address","internalType":"address"},{"name":"referralCode","type":"uint16","internalType":"uint16"},{"name":"poolAddressesProvider","type":"address","internalType":"contract IPoolAddressesProvider"}],"stateMutability":"nonpayable"},{"type":"function","name":"AAVE_POOL","inputs":[],"outputs":[{"name":"","type":"address","internalType":"contract IPool"}],"stateMutability":"view"},{"type":"function","name":"ATOKEN","inputs":[],"outputs":[{"name":"","type":"address","internalType":"contract IAToken"}],"stateMutability":"view"},{"type":"function","name":"POOL_ADDRESSES_PROVIDER","inputs":[],"outputs":[{"name":"","type":"address","internalType":"contract IPoolAddressesProvider"}],"stateMutability":"view"},{"type":"function","name":"REFERRAL_CODE","inputs":[],"outputs":[{"name":"","type":"uint16","internalType":"uint16"}],"stateMutability":"view"},{"type":"function","name":"UNDERLYING","inputs":[],"outputs":[{"name":"","type":"address","internalType":"contract IERC20Upgradeable"}],"stateMutability":"view"},{"type":"function","name":"allowance","inputs":[{"name":"owner","type":"address","internalType":"address"},{"name":"spender","type":"address","internalType":"address"}],"outputs":[{"name":"","type":"uint256","internalType":"uint256"}],"stateMutability":"view"},{"type":"function","name":"approve","inputs":[{"name":"spender","type":"address","internalType":"address"},{"name":"amount","type":"uint256","internalType":"uint256"}],"outputs":[{"name":"","type":"bool","internalType":"bool"}],"stateMutability":"nonpayable"},{"type":"function","name":"asset","inputs":[],"outputs":[{"name":"","type":"address","internalType":"address"}],"stateMutability":"view"},{"type":"function","name":"balanceOf","inputs":[{"name":"account","type":"address","internalType":"address"}],"outputs":[{"name":"","type":"uint256","internalType":"uint256"}],"stateMutability":"view"},{"type":"function","name":"claimRewards","inputs":[{"name":"to","type":"address","internalType":"address"}],"outputs":[],"stateMutability":"nonpayable"},{"type":"function","name":"convertToAssets","inputs":[{"name":"shares","type":"uint256","internalType":"uint256"}],"outputs":[{"name":"","type":"uint256","internalType":"uint256"}],"stateMutability":"view"},{"type":"function","name":"convertToShares","inputs":[{"name":"assets","type":"uint256","internalType":"uint256"}],"outputs":[{"name":"","type":"uint256","internalType":"uint256"}],"stateMutability":"view"},{"type":"function","name":"decimals","inputs":[],"outputs":[{"name":"","type":"uint8","internalType":"uint8"}],"stateMutability":"view"},{"type":"function","name":"decreaseAllowance","inputs":[{"name":"spender","type":"address","internalType":"address"},{"name":"subtractedValue","type":"uint256","internalType":"uint256"}],"outputs":[{"name":"","type":"bool","internalType":"bool"}],"stateMutability":"nonpayable"},{"type":"function","name":"deposit","inputs":[{"name":"assets","type":"uint256","internalType":"uint256"},{"name":"receiver","type":"address","internalType":"address"}],"outputs":[{"name":"","type":"uint256","internalType":"uint256"}],"stateMutability":"nonpayable"},{"type":"function","name":"depositATokens","inputs":[{"name":"assets","type":"uint256","internalType":"uint256"},{"name":"receiver","type":"address","internalType":"address"}],"outputs":[{"name":"","type":"uint256","internalType":"uint256"}],"stateMutability":"nonpayable"},{"type":"function","name":"depositATokensWithSig","inputs":[{"name":"assets","type":"uint256","internalType":"uint256"},{"name":"receiver","type":"address","internalType":"address"},{"name":"depositor","type":"address","internalType":"address"},{"name":"sig","type":"tuple","internalType":"struct IATokenVault.EIP712Signature","components":[{"name":"v","type":"uint8","internalType":"uint8"},{"name":"r","type":"bytes32","internalType":"bytes32"},{"name":"s","type":"bytes32","internalType":"bytes32"},{"name":"deadline","type":"uint256","internalType":"uint256"}]}],"outputs":[{"name":"","type":"uint256","internalType":"uint256"}],"stateMutability":"nonpayable"},{"type":"function","name":"depositWithSig","inputs":[{"name":"assets","type":"uint256","internalType":"uint256"},{"name":"receiver","type":"address","internalType":"address"},{"name":"depositor","type":"address","internalType":"address"},{"name":"sig","type":"tuple","internalType":"struct IATokenVault.EIP712Signature","components":[{"name":"v","type":"uint8","internalType":"uint8"},{"name":"r","type":"bytes32","internalType":"bytes32"},{"name":"s","type":"bytes32","internalType":"bytes32"},{"name":"deadline","type":"uint256","internalType":"uint256"}]}],"outputs":[{"name":"","type":"uint256","internalType":"uint256"}],"stateMutability":"nonpayable"},{"type":"function","name":"domainSeparator","inputs":[],"outputs":[{"name":"","type":"bytes32","internalType":"bytes32"}],"stateMutability":"view"},{"type":"function","name":"eip712Domain","inputs":[],"outputs":[{"name":"fields","type":"bytes1","internalType":"bytes1"},{"name":"name","type":"string","internalType":"string"},{"name":"version","type":"string","internalType":"string"},{"name":"chainId","type":"uint256","internalType":"uint256"},{"name":"verifyingContract","type":"address","internalType":"address"},{"name":"salt","type":"bytes32","internalType":"bytes32"},{"name":"extensions","type":"uint256[]","internalType":"uint256[]"}],"stateMutability":"view"},{"type":"function","name":"emergencyRescue","inputs":[{"name":"token","type":"address","internalType":"address"},{"name":"to","type":"address","internalType":"address"},{"name":"amount","type":"uint256","internalType":"uint256"}],"outputs":[],"stateMutability":"nonpayable"},{"type":"function","name":"getClaimableFees","inputs":[],"outputs":[{"name":"","type":"uint256","internalType":"uint256"}],"stateMutability":"view"},{"type":"function","name":"getFee","inputs":[],"outputs":[{"name":"","type":"uint256","internalType":"uint256"}],"stateMutability":"view"},{"type":"function","name":"getLastVaultBalance","inputs":[],"outputs":[{"name":"","type":"uint256","internalType":"uint256"}],"stateMutability":"view"},{"type":"function","name":"getSigNonce","inputs":[{"name":"signer","type":"address","internalType":"address"}],"outputs":[{"name":"","type":"uint256","internalType":"uint256"}],"stateMutability":"view"},{"type":"function","name":"increaseAllowance","inputs":[{"name":"spender","type":"address","internalType":"address"},{"name":"addedValue","type":"uint256","internalType":"uint256"}],"outputs":[{"name":"","type":"bool","internalType":"bool"}],"stateMutability":"nonpayable"},{"type":"function","name":"initialize","inputs":[{"name":"owner","type":"address","internalType":"address"},{"name":"initialFee","type":"uint256","internalType":"uint256"},{"name":"shareName","type":"string","internalType":"string"},{"name":"shareSymbol","type":"string","internalType":"string"},{"name":"initialLockDeposit","type":"uint256","internalType":"uint256"}],"outputs":[],"stateMutability":"nonpayable"},{"type":"function","name":"maxDeposit","inputs":[{"name":"","type":"address","internalType":"address"}],"outputs":[{"name":"","type":"uint256","internalType":"uint256"}],"stateMutability":"view"},{"type":"function","name":"maxMint","inputs":[{"name":"","type":"address","internalType":"address"}],"outputs":[{"name":"","type":"uint256","internalType":"uint256"}],"stateMutability":"view"},{"type":"function","name":"maxRedeem","inputs":[{"name":"owner","type":"address","internalType":"address"}],"outputs":[{"name":"","type":"uint256","internalType":"uint256"}],"stateMutability":"view"},{"type":"function","name":"maxWithdraw","inputs":[{"name":"owner","type":"address","internalType":"address"}],"outputs":[{"name":"","type":"uint256","internalType":"uint256"}],"stateMutability":"view"},{"type":"function","name":"mint","inputs":[{"name":"shares","type":"uint256","internalType":"uint256"},{"name":"receiver","type":"address","internalType":"address"}],"outputs":[{"name":"","type":"uint256","internalType":"uint256"}],"stateMutability":"nonpayable"},{"type":"function","name":"mintWithATokens","inputs":[{"name":"shares","type":"uint256","internalType":"uint256"},{"name":"receiver","type":"address","internalType":"address"}],"outputs":[{"name":"","type":"uint256","internalType":"uint256"}],"stateMutability":"nonpayable"},{"type":"function","name":"mintWithATokensWithSig","inputs":[{"name":"shares","type":"uint256","internalType":"uint256"},{"name":"receiver","type":"address","internalType":"address"},{"name":"depositor","type":"address","internalType":"address"},{"name":"sig","type":"tuple","internalType":"struct IATokenVault.EIP712Signature","components":[{"name":"v","type":"uint8","internalType":"uint8"},{"name":"r","type":"bytes32","internalType":"bytes32"},{"name":"s","type":"bytes32","internalType":"bytes32"},{"name":"deadline","type":"uint256","internalType":"uint256"}]}],"outputs":[{"name":"","type":"uint256","internalType":"uint256"}],"stateMutability":"nonpayable"},{"type":"function","name":"mintWithSig","inputs":[{"name":"shares","type":"uint256","internalType":"uint256"},{"name":"receiver","type":"address","internalType":"address"},{"name":"depositor","type":"address","internalType":"address"},{"name":"sig","type":"tuple","internalType":"struct IATokenVault.EIP712Signature","components":[{"name":"v","type":"uint8","internalType":"uint8"},{"name":"r","type":"bytes32","internalType":"bytes32"},{"name":"s","type":"bytes32","internalType":"bytes32"},{"name":"deadline","type":"uint256","internalType":"uint256"}]}],"outputs":[{"name":"","type":"uint256","internalType":"uint256"}],"stateMutability":"nonpayable"},{"type":"function","name":"name","inputs":[],"outputs":[{"name":"","type":"string","internalType":"string"}],"stateMutability":"view"},{"type":"function","name":"owner","inputs":[],"outputs":[{"name":"","type":"address","internalType":"address"}],"stateMutability":"view"},{"type":"function","name":"previewDeposit","inputs":[{"name":"assets","type":"uint256","internalType":"uint256"}],"outputs":[{"name":"","type":"uint256","internalType":"uint256"}],"stateMutability":"view"},{"type":"function","name":"previewMint","inputs":[{"name":"shares","type":"uint256","internalType":"uint256"}],"outputs":[{"name":"","type":"uint256","internalType":"uint256"}],"stateMutability":"view"},{"type":"function","name":"previewRedeem","inputs":[{"name":"shares","type":"uint256","internalType":"uint256"}],"outputs":[{"name":"","type":"uint256","internalType":"uint256"}],"stateMutability":"view"},{"type":"function","name":"previewWithdraw","inputs":[{"name":"assets","type":"uint256","internalType":"uint256"}],"outputs":[{"name":"","type":"uint256","internalType":"uint256"}],"stateMutability":"view"},{"type":"function","name":"redeem","inputs":[{"name":"shares","type":"uint256","internalType":"uint256"},{"name":"receiver","type":"address","internalType":"address"},{"name":"owner","type":"address","internalType":"address"}],"outputs":[{"name":"","type":"uint256","internalType":"uint256"}],"stateMutability":"nonpayable"},{"type":"function","name":"redeemAsATokens","inputs":[{"name":"shares","type":"uint256","internalType":"uint256"},{"name":"receiver","type":"address","internalType":"address"},{"name":"owner","type":"address","internalType":"address"}],"outputs":[{"name":"","type":"uint256","internalType":"uint256"}],"stateMutability":"nonpayable"},{"type":"function","name":"redeemWithATokensWithSig","inputs":[{"name":"shares","type":"uint256","internalType":"uint256"},{"name":"receiver","type":"address","internalType":"address"},{"name":"owner","type":"address","internalType":"address"},{"name":"sig","type":"tuple","internalType":"struct IATokenVault.EIP712Signature","components":[{"name":"v","type":"uint8","internalType":"uint8"},{"name":"r","type":"bytes32","internalType":"bytes32"},{"name":"s","type":"bytes32","internalType":"bytes32"},{"name":"deadline","type":"uint256","internalType":"uint256"}]}],"outputs":[{"name":"","type":"uint256","internalType":"uint256"}],"stateMutability":"nonpayable"},{"type":"function","name":"redeemWithSig","inputs":[{"name":"shares","type":"uint256","internalType":"uint256"},{"name":"receiver","type":"address","internalType":"address"},{"name":"owner","type":"address","internalType":"address"},{"name":"sig","type":"tuple","internalType":"struct IATokenVault.EIP712Signature","components":[{"name":"v","type":"uint8","internalType":"uint8"},{"name":"r","type":"bytes32","internalType":"bytes32"},{"name":"s","type":"bytes32","internalType":"bytes32"},{"name":"deadline","type":"uint256","internalType":"uint256"}]}],"outputs":[{"name":"","type":"uint256","internalType":"uint256"}],"stateMutability":"nonpayable"},{"type":"function","name":"renounceOwnership","inputs":[],"outputs":[],"stateMutability":"nonpayable"},{"type":"function","name":"setFee","inputs":[{"name":"newFee","type":"uint256","internalType":"uint256"}],"outputs":[],"stateMutability":"nonpayable"},{"type":"function","name":"symbol","inputs":[],"outputs":[{"name":"","type":"string","internalType":"string"}],"stateMutability":"view"},{"type":"function","name":"totalAssets","inputs":[],"outputs":[{"name":"","type":"uint256","internalType":"uint256"}],"stateMutability":"view"},{"type":"function","name":"totalSupply","inputs":[],"outputs":[{"name":"","type":"uint256","internalType":"uint256"}],"stateMutability":"view"},{"type":"function","name":"transfer","inputs":[{"name":"to","type":"address","internalType":"address"},{"name":"amount","type":"uint256","internalType":"uint256"}],"outputs":[{"name":"","type":"bool","internalType":"bool"}],"stateMutability":"nonpayable"},{"type":"function","name":"transferFrom","inputs":[{"name":"from","type":"address","internalType":"address"},{"name":"to","type":"address","internalType":"address"},{"name":"amount","type":"uint256","internalType":"uint256"}],"outputs":[{"name":"","type":"bool","internalType":"bool"}],"stateMutability":"nonpayable"},{"type":"function","name":"transferOwnership","inputs":[{"name":"newOwner","type":"address","internalType":"address"}],"outputs":[],"stateMutability":"nonpayable"},{"type":"function","name":"withdraw","inputs":[{"name":"assets","type":"uint256","internalType":"uint256"},{"name":"receiver","type":"address","internalType":"address"},{"name":"owner","type":"address","internalType":"address"}],"outputs":[{"name":"","type":"uint256","internalType":"uint256"}],"stateMutability":"nonpayable"},{"type":"function","name":"withdrawATokens","inputs":[{"name":"assets","type":"uint256","internalType":"uint256"},{"name":"receiver","type":"address","internalType":"address"},{"name":"owner","type":"address","internalType":"address"}],"outputs":[{"name":"","type":"uint256","internalType":"uint256"}],"stateMutability":"nonpayable"},{"type":"function","name":"withdrawATokensWithSig","inputs":[{"name":"assets","type":"uint256","internalType":"uint256"},{"name":"receiver","type":"address","internalType":"address"},{"name":"owner","type":"address","internalType":"address"},{"name":"sig","type":"tuple","internalType":"struct IATokenVault.EIP712Signature","components":[{"name":"v","type":"uint8","internalType":"uint8"},{"name":"r","type":"bytes32","internalType":"bytes32"},{"name":"s","type":"bytes32","internalType":"bytes32"},{"name":"deadline","type":"uint256","internalType":"uint256"}]}],"outputs":[{"name":"","type":"uint256","internalType":"uint256"}],"stateMutability":"nonpayable"},{"type":"function","name":"withdrawFees","inputs":[{"name":"to","type":"address","internalType":"address"},{"name":"amount","type":"uint256","internalType":"uint256"}],"outputs":[],"stateMutability":"nonpayable"},{"type":"function","name":"withdrawWithSig","inputs":[{"name":"assets","type":"uint256","internalType":"uint256"},{"name":"receiver","type":"address","internalType":"address"},{"name":"owner","type":"address","internalType":"address"},{"name":"sig","type":"tuple","internalType":"struct IATokenVault.EIP712Signature","components":[{"name":"v","type":"uint8","internalType":"uint8"},{"name":"r","type":"bytes32","internalType":"bytes32"},{"name":"s","type":"bytes32","internalType":"bytes32"},{"name":"deadline","type":"uint256","internalType":"uint256"}]}],"outputs":[{"name":"","type":"uint256","internalType":"uint256"}],"stateMutability":"nonpayable"},{"type":"event","name":"Approval","inputs":[{"name":"owner","type":"address","indexed":true,"internalType":"address"},{"name":"spender","type":"address","indexed":true,"internalType":"address"},{"name":"value","type":"uint256","indexed":false,"internalType":"uint256"}],"anonymous":false},{"type":"event","name":"Deposit","inputs":[{"name":"sender","type":"address","indexed":true,"internalType":"address"},{"name":"owner","type":"address","indexed":true,"internalType":"address"},{"name":"assets","type":"uint256","indexed":false,"internalType":"uint256"},{"name":"shares","type":"uint256","indexed":false,"internalType":"uint256"}],"anonymous":false},{"type":"event","name":"EIP712DomainChanged","inputs":[],"anonymous":false},{"type":"event","name":"EmergencyRescue","inputs":[{"name":"token","type":"address","indexed":true,"internalType":"address"},{"name":"to","type":"address","indexed":true,"internalType":"address"},{"name":"amount","type":"uint256","indexed":false,"internalType":"uint256"}],"anonymous":false},{"type":"event","name":"FeeUpdated","inputs":[{"name":"oldFee","type":"uint256","indexed":true,"internalType":"uint256"},{"name":"newFee","type":"uint256","indexed":true,"internalType":"uint256"}],"anonymous":false},{"type":"event","name":"FeesWithdrawn","inputs":[{"name":"to","type":"address","indexed":true,"internalType":"address"},{"name":"amount","type":"uint256","indexed":true,"internalType":"uint256"},{"name":"newVaultBalance","type":"uint256","indexed":false,"internalType":"uint256"},{"name":"newTotalFeesAccrued","type":"uint256","indexed":false,"internalType":"uint256"}],"anonymous":false},{"type":"event","name":"Initialized","inputs":[{"name":"version","type":"uint8","indexed":false,"internalType":"uint8"}],"anonymous":false},{"type":"event","name":"OwnershipTransferred","inputs":[{"name":"previousOwner","type":"address","indexed":true,"internalType":"address"},{"name":"newOwner","type":"address","indexed":true,"internalType":"address"}],"anonymous":false},{"type":"event","name":"RewardsClaimed","inputs":[{"name":"to","type":"address","indexed":true,"internalType":"address"},{"name":"rewardsList","type":"address[]","indexed":false,"internalType":"address[]"},{"name":"claimedAmounts","type":"uint256[]","indexed":false,"internalType":"uint256[]"}],"anonymous":false},{"type":"event","name":"Transfer","inputs":[{"name":"from","type":"address","indexed":true,"internalType":"address"},{"name":"to","type":"address","indexed":true,"internalType":"address"},{"name":"value","type":"uint256","indexed":false,"internalType":"uint256"}],"anonymous":false},{"type":"event","name":"Withdraw","inputs":[{"name":"sender","type":"address","indexed":true,"internalType":"address"},{"name":"receiver","type":"address","indexed":true,"internalType":"address"},{"name":"owner","type":"address","indexed":true,"internalType":"address"},{"name":"assets","type":"uint256","indexed":false,"internalType":"uint256"},{"name":"shares","type":"uint256","indexed":false,"internalType":"uint256"}],"anonymous":false},{"type":"event","name":"YieldAccrued","inputs":[{"name":"accruedYield","type":"uint256","indexed":false,"internalType":"uint256"},{"name":"newFeesFromYield","type":"uint256","indexed":false,"internalType":"uint256"},{"name":"newVaultBalance","type":"uint256","indexed":false,"internalType":"uint256"}],"anonymous":false}],"bytecode":{"object":"0x61012060408181523461036957606082615f1180380380916100218285610454565b8339810103126103695761003482610477565b6020908261004383860161048b565b9401516001600160a01b03919082811690818103610369575f5460ff8160081c16610400579185918360ff8060049616036103c8575b50608052865163026b1d5f60e01b815292839182905afa80156103885783905f90610392575b81925016918260a052610100968752168060e05284519182916335ea6a7560e01b835260048301528160246101e09485935afa91821561038857908692915f92610210575b50500151169081156101cd575060c05251615a6291826104af833960805182610b67015260a051828181610a17015281816121a601528181613a0b0152818161400601528181614d5f015261541c015260c051828181610dcc015281816115ef01528181611a2601528181611d3d01528181612331015281816125a501528181613a88015281816140ce015281816143f801528181614bd901528181614e5001528181615223015261547f015260e05182818161191601528181612162015281816139d601528181613fd401528181614d1a01526153da015251818181610bca0152614dd90152f35b60649083519062461bcd60e51b82526004820152601360248201527f41535345545f4e4f545f535550504f52544544000000000000000000000000006044820152fd5b8193508092503d8311610381575b6102288183610454565b810103818112610369578551918201906001600160401b03908183118484101761036d5786136103695761020083019081118282101761036d57865282518152815261027584830161049a565b8482015261028485830161049a565b858201526102946060830161049a565b60608201526102a56080830161049a565b60808201526102b660a0830161049a565b60a082015260c08201519164ffffffffff8316830361036957869260c08301526102e260e0820161048b565b60e08301526102f2838201610477565b83830152610120610304818301610477565b90830152610140610316818301610477565b90830152610160610328818301610477565b9083015261018061033a81830161049a565b908301526101a061034c81830161049a565b9083015261035e6101c080920161049a565b908201525f806100e4565b5f80fd5b634e487b7160e01b5f52604160045260245ffd5b503d61021e565b85513d5f823e3d90fd5b50508381813d83116103c1575b6103a98183610454565b8101031261036957826103bc8192610477565b61009f565b503d61039f565b60ff90811916175f557f7f26b83ff96e1f2b6a682f133852f6798a09c465da95921460cefb384740249883895160ff8152a15f610079565b865162461bcd60e51b815260048101879052602760248201527f496e697469616c697a61626c653a20636f6e747261637420697320696e697469604482015266616c697a696e6760c81b6064820152608490fd5b601f909101601f19168101906001600160401b0382119082101761036d57604052565b51906001600160a01b038216820361036957565b519061ffff8216820361036957565b51906001600160801b03821682036103695756fe60806040526004361015610011575f80fd5b5f3560e01c80628b187b146103b357806301e1d114146103ae57806305ac0ab4146103a95780630634d4e9146103a457806306fdde031461039f57806307a2d13a1461039a57806308a0167514610395578063095ea7b3146103905780630a28a4771461038b57806318160ddd1461038657806323b872dd14610381578063274f0e241461037c578063311cd5a414610377578063313ce567146103725780633583849a1461036d57806338d52e0f146103685780633950935114610363578063402d267d1461035e578063403c02d0146103595780634cdad5061461035457806351c0e0611461034f5780635be35e1a1461034a5780636738445e1461034557806369fe0e2d146103405780636e553f651461033b57806370a0823114610336578063715018a6146103315780637fc1664a1461032c57806384b0196e146103275780638da5cb5b1461032257806394bf804d1461031d57806395d89b41146103185780639d3ebd9414610313578063a457c2d71461030e578063a9059cbb14610309578063ad3b1b4714610304578063b344ed03146102ff578063b3d7f6b9146102fa578063b460af94146102f5578063ba087652146102f0578063bddd09b7146102eb578063bfedc2be146102e6578063c5d664c6146102e1578063c63d75b6146102dc578063c6e6f592146102d7578063c7df1f56146102d2578063ce96cb77146102cd578063ced72f87146102c8578063d687d0b3146102c3578063d905777e146102be578063dd62ed3e146102b9578063e25ec349146102b4578063ee4535ba146102af578063ef5cfb8c146102aa578063ef8b30f7146102a5578063f2fde38b146102a0578063f698da251461029b5763ffd7d21f14610296575f80fd5b611fac565b611f92565b611ec4565b611ea0565b611ce5565b611c38565b611c0c565b611b91565b611b6a565b6119f2565b6119c8565b6119a1565b611986565b611968565b61193a565b6118ea565b6118ab565b61187c565b611861565b611846565b611817565b61176a565b6114f5565b6114cb565b6113d2565b611325565b611280565b611254565b611221565b611167565b611002565b610f84565b610f3b565b610f0f565b610ee1565b610e34565b610e19565b610da0565b610d60565b610cb3565b610c8d565b610c21565b610bee565b610bb0565b610b8b565b610b3b565b610b21565b610aff565b610ab6565b610a70565b610a3b565b6109eb565b6109cd565b6108d3565b6107a5565b610703565b6106e1565b610556565b73ffffffffffffffffffffffffffffffffffffffff8116036103d657565b5f80fd5b7f4e487b71000000000000000000000000000000000000000000000000000000005f52604160045260245ffd5b67ffffffffffffffff811161041b57604052565b6103da565b6020810190811067ffffffffffffffff82111761041b57604052565b6040810190811067ffffffffffffffff82111761041b57604052565b60e0810190811067ffffffffffffffff82111761041b57604052565b90601f7fffffffffffffffffffffffffffffffffffffffffffffffffffffffffffffffe0910116810190811067ffffffffffffffff82111761041b57604052565b604051906101e0820182811067ffffffffffffffff82111761041b57604052565b67ffffffffffffffff811161041b57601f017fffffffffffffffffffffffffffffffffffffffffffffffffffffffffffffffe01660200190565b81601f820112156103d657803590610527826104d6565b926105356040519485610474565b828452602083830101116103d657815f926020809301838601378301015290565b346103d65760a06003193601126103d657600435610573816103b8565b67ffffffffffffffff6044358181116103d657610594903690600401610510565b916064359182116103d6576105b0610615923690600401610510565b5f54936105d460ff8660081c1615809681976106c9575b81156106a9575b50612059565b8461060360017fffffffffffffffffffffffffffffffffffffffffffffffffffffffffffffff005f5416175f55565b610675575b608435926024359061211d565b61061b57005b6106467fffffffffffffffffffffffffffffffffffffffffffffffffffffffffffff00ff5f54165f55565b604051600181527f7f26b83ff96e1f2b6a682f133852f6798a09c465da95921460cefb384740249890602090a1005b6106a46101007fffffffffffffffffffffffffffffffffffffffffffffffffffffffffffff00ff5f5416175f55565b610608565b303b159150816106bb575b505f6105ce565b6001915060ff16145f6106b4565b600160ff82161091506105c7565b5f9103126103d657565b346103d6575f6003193601126103d65760206106fb6122e8565b604051908152f35b346103d65760206003193601126103d65773ffffffffffffffffffffffffffffffffffffffff600435610735816103b8565b165f5260fd602052602060405f2054604051908152f35b9060e06003198301126103d65760043591602435610769816103b8565b9160807fffffffffffffffffffffffffffffffffffffffffffffffffffffffffffffff9c604435610799816103b8565b9301126103d657606490565b346103d6576108786108686108636107bc3661074c565b8161085e73ffffffffffffffffffffffffffffffffffffffff969396959495808316805f5260fd60205260405f208054906001820190556040519160208301937f31f715285d0336ec5283088d1b45126d1ce4b6ecda1dacc0018f3af0ab9f273985528960408501528a166060840152608083015260a0820152606085013560c082015260c0815261084d81610458565b519020610858614f32565b9061320b565b61338c565b613548565b6040519081529081906020820190565b0390f35b907fffffffffffffffffffffffffffffffffffffffffffffffffffffffffffffffe0601f602080948051918291828752018686015e5f8582860101520116010190565b9060206108d092818152019061087c565b90565b346103d6575f6003193601126103d6576040515f6036546108f381612395565b80845290602090600190818116908115610985575060011461092c575b6108788561092081870382610474565b604051918291826108bf565b60365f90815293507f4a11f94e20a93c79f6ec743a1954ec4fc2c08429ae2122118bf234b2185c81b85b8385106109725750505050810160200161092082610878610910565b8054868601840152938201938101610956565b869550610878969350602092506109209491507fffffffffffffffffffffffffffffffffffffffffffffffffffffffffffffff001682840152151560051b8201019293610910565b346103d65760206003193601126103d65760206106fb600435613604565b346103d6575f6003193601126103d657602060405173ffffffffffffffffffffffffffffffffffffffff7f0000000000000000000000000000000000000000000000000000000000000000168152f35b346103d65760406003193601126103d657610a65600435610a5b816103b8565b602435903361365a565b602060405160018152f35b346103d65760206003193601126103d657610a89613999565b80610a9a575060205f604051908152f35b610ab1610aac60209260043590613b40565b613b52565b6106fb565b346103d6575f6003193601126103d6576020603554604051908152f35b60031960609101126103d657600435610aeb816103b8565b90602435610af8816103b8565b9060443590565b346103d657610a65610b1036610ad3565b91610b1c833383613ba8565b613db1565b346103d6575f6003193601126103d65760206106fb612571565b346103d6575f6003193601126103d657602060405173ffffffffffffffffffffffffffffffffffffffff7f0000000000000000000000000000000000000000000000000000000000000000168152f35b346103d6575f6003193601126103d6576020610ba5612662565b60ff60405191168152f35b346103d6575f6003193601126103d657602060405161ffff7f0000000000000000000000000000000000000000000000000000000000000000168152f35b346103d6575f6003193601126103d657602073ffffffffffffffffffffffffffffffffffffffff60655416604051908152f35b346103d65760406003193601126103d657600435610c3e816103b8565b335f526034602052610c718160405f209073ffffffffffffffffffffffffffffffffffffffff165f5260205260405f2090565b546024358101809111610c8857610a65913361365a565b6122ae565b346103d65760206003193601126103d657610ca96004356103b8565b60206106fb613f97565b346103d657610878610868610d5b610cca3661074c565b9381948261085e73ffffffffffffffffffffffffffffffffffffffff969496808316805f5260fd60205260405f208054906001820190556040519160208301937ff7a555df330b7da73a95b63b182e2bb0502dca4a55fa99d8b235bea4c1d2fa0f85528960408501528a166060840152608083015260a0820152606085013560c082015260c0815261084d81610458565b6141fd565b346103d65760206003193601126103d657610d79613999565b80610d8a575060205f604051908152f35b610ab1602091610d9b600435613604565b613b40565b346103d6575f6003193601126103d657602060405173ffffffffffffffffffffffffffffffffffffffff7f0000000000000000000000000000000000000000000000000000000000000000168152f35b60031960609101126103d65760043590602435610e0c816103b8565b906044356108d0816103b8565b346103d65760206106fb610e2c36610df0565b9033926141fd565b346103d657610878610868610edc610e4b3661074c565b9381948261085e73ffffffffffffffffffffffffffffffffffffffff969496808316805f5260fd60205260405f208054906001820190556040519160208301937fc0484d18c6ea2cbf7245b69a4c0ff9eac77560075afcb46f857ca211330d8bfd85528960408501528a166060840152608083015260a0820152606085013560c082015260c0815261084d81610458565b6142ed565b346103d65760206003193601126103d657610efa614321565b610f026143c4565b610f0d600435612e91565b005b346103d65760406003193601126103d65760206106fb602435610f31816103b8565b33906004356130ef565b346103d65760206003193601126103d65773ffffffffffffffffffffffffffffffffffffffff600435610f6d816103b8565b165f526033602052602060405f2054604051908152f35b346103d6575f6003193601126103d657610f9c614321565b5f73ffffffffffffffffffffffffffffffffffffffff6097547fffffffffffffffffffffffff00000000000000000000000000000000000000008116609755167f8be0079c531659141344cd1fd0a4f28419497f9722a3daafe3b4186f6b6457e08280a3005b346103d6576108786108686110aa6110193661074c565b8161085e73ffffffffffffffffffffffffffffffffffffffff969396959495808316805f5260fd60205260405f208054906001820190556040519160208301937f15eaa5acc15a2b2b4af7fa12919d9e1f33955afd5d7af5764a1c5c88ef95f42885528960408501528a166060840152608083015260a0820152606085013560c082015260c0815261084d81610458565b6131e2565b9081518082526020808093019301915f5b8281106110ce575050505090565b8351855293810193928101926001016110c0565b91936111486108d096949561113a73ffffffffffffffffffffffffffffffffffffffff947f0f00000000000000000000000000000000000000000000000000000000000000875260e0602088015260e087019061087c565b90858203604087015261087c565b9460608401521660808201525f60a082015260c08184039101526110af565b346103d6575f6003193601126103d65760c9541580611217575b156111b95761118e6123e6565b6111966124c8565b906108786040516111a681610420565b5f815260405193849330914691866110e2565b60646040517f08c379a000000000000000000000000000000000000000000000000000000000815260206004820152601560248201527f4549503731323a20556e696e697469616c697a656400000000000000000000006044820152fd5b5060ca5415611181565b346103d6575f6003193601126103d657602073ffffffffffffffffffffffffffffffffffffffff60975416604051908152f35b346103d65760406003193601126103d65760206106fb602435611276816103b8565b3390600435613566565b346103d6575f6003193601126103d6576040515f6037546112a081612395565b8084529060209060019081811690811561098557506001146112cc576108788561092081870382610474565b60375f90815293507f42a7b7dd785cd69714a189dffb3fd7d7174edc9ece837694ce50f7078f7c31ae5b8385106113125750505050810160200161092082610878610910565b80548686018401529382019381016112f6565b346103d6576108786108686113cd61133c3661074c565b8161085e73ffffffffffffffffffffffffffffffffffffffff969396959495808316805f5260fd60205260405f208054906001820190556040519160208301937fe9c23c17074c4703a97d1bd5244f0b58300a709d3583fdad93de5e134ea685d285528960408501528a166060840152608083015260a0820152606085013560c082015260c0815261084d81610458565b613566565b346103d65760406003193601126103d6576004356113ef816103b8565b60243590335f5260346020526114268160405f209073ffffffffffffffffffffffffffffffffffffffff165f5260205260405f2090565b54918083106114475761143b9203903361365a565b60405160018152602090f35b60846040517f08c379a000000000000000000000000000000000000000000000000000000000815260206004820152602560248201527f45524332303a2064656372656173656420616c6c6f77616e63652062656c6f7760448201527f207a65726f0000000000000000000000000000000000000000000000000000006064820152fd5b346103d65760406003193601126103d657610a656004356114eb816103b8565b6024359033613db1565b346103d65760406003193601126103d657600435611512816103b8565b6024359061151e614321565b6115266143c4565b60fe5460801c9061159e61155c6fffffffffffffffffffffffffffffffff9361155385821687111561268e565b848616906126f3565b6fffffffffffffffffffffffffffffffff7fffffffffffffffffffffffffffffffff0000000000000000000000000000000060fe549260801b1691161760fe55565b6040517fa9059cbb00000000000000000000000000000000000000000000000000000000815273ffffffffffffffffffffffffffffffffffffffff82811660048301526024820185905260209290917f000000000000000000000000000000000000000000000000000000000000000083169084816044815f865af180156117385761173d575b506040517f70a08231000000000000000000000000000000000000000000000000000000008152306004820152908490829060249082905afa938415611738577f2f7b02703a7c602588420b2be2f0a441b52632acdfcb11933bfc01e6226bd966946116d49287925f9261170b575b5050166fffffffffffffffffffffffffffffffff167fffffffffffffffffffffffffffffffff0000000000000000000000000000000060fe54161760fe55565b60fe54604080519582166fffffffffffffffffffffffffffffffff16865260809190911c602086015291169290819081015b0390a3005b61172a9250803d10611731575b6117228183610474565b810190612294565b5f80611694565b503d611718565b6122a3565b61175c90853d8711611763575b6117548183610474565b810190612715565b505f611625565b503d61174a565b346103d6576108786108686118126117813661074c565b9381948261085e73ffffffffffffffffffffffffffffffffffffffff969496808316805f5260fd60205260405f208054906001820190556040519160208301937f2a779101c1c147a93a0f0f2af51e69be2bf9fcfd59c93571c7dc958f7b00bc9f85528960408501528a166060840152608083015260a0820152606085013560c082015260c0815261084d81610458565b61454d565b346103d65760206003193601126103d65760206106fb61183860043561362f565b611840613f97565b90613b40565b346103d65760206106fb61185936610df0565b9033926145d8565b346103d65760206106fb61187436610df0565b9033926142ed565b346103d6575f6003193601126103d65760206fffffffffffffffffffffffffffffffff60fe5416604051908152f35b346103d65760406003193601126103d65760206004356106fb6024356118d0816103b8565b6118d86143c4565b6118e18361362f565b92339084614b7d565b346103d6575f6003193601126103d657602060405173ffffffffffffffffffffffffffffffffffffffff7f0000000000000000000000000000000000000000000000000000000000000000168152f35b346103d65760206003193601126103d6576119566004356103b8565b60206106fb611963613f97565b613b7d565b346103d65760206003193601126103d65760206106fb600435613b7d565b346103d65760206106fb61199936610df0565b90339261454d565b346103d65760206003193601126103d65760206106fb6004356119c3816103b8565b61272d565b346103d6575f6003193601126103d657602067ffffffffffffffff60ff5460281c16604051908152f35b346103d657611a0036610ad3565b9190611a0a614321565b73ffffffffffffffffffffffffffffffffffffffff80921691807f0000000000000000000000000000000000000000000000000000000000000000168314611b0c576040517fa9059cbb00000000000000000000000000000000000000000000000000000000602082015273ffffffffffffffffffffffffffffffffffffffff83166024820152604481018590527fea4a477e0088f88561958e72554e9c7813468c62643829628924da5793beb9699290611afa90611af481606481015b037fffffffffffffffffffffffffffffffffffffffffffffffffffffffffffffffe08101835282610474565b85614a5e565b60405194855216928060208101611706565b60646040517f08c379a000000000000000000000000000000000000000000000000000000000815260206004820152601460248201527f43414e4e4f545f5245534355455f41544f4b454e0000000000000000000000006044820152fd5b346103d65760206003193601126103d65760206106fb600435611b8c816103b8565b61276e565b346103d65760406003193601126103d6576020611c03600435611bb3816103b8565b73ffffffffffffffffffffffffffffffffffffffff60243591611bd5836103b8565b165f526034835260405f209073ffffffffffffffffffffffffffffffffffffffff165f5260205260405f2090565b54604051908152f35b346103d65760406003193601126103d65760206106fb602435611c2e816103b8565b33906004356131e2565b346103d657610878610868611ce0611c4f3661074c565b9381948261085e73ffffffffffffffffffffffffffffffffffffffff969496808316805f5260fd60205260405f208054906001820190556040519160208301937fad42a8f215b27fe0954650488d71791b9850878ebd5d05b6dac694749400a1a685528960408501528a166060840152608083015260a0820152606085013560c082015260c0815261084d81610458565b6145d8565b346103d65760206003193601126103d657600435611d02816103b8565b611d0a614321565b73ffffffffffffffffffffffffffffffffffffffff600481831692611d308415156127b7565b611d3861281c565b6020847f000000000000000000000000000000000000000000000000000000000000000016611d8581611d6a85612836565b9073ffffffffffffffffffffffffffffffffffffffff169052565b604051948580927f75d264130000000000000000000000000000000000000000000000000000000082525afa90811561173857611dfd945f948593611e6d575b5084906040518097819682957fbb492bf5000000000000000000000000000000000000000000000000000000008452600484016129db565b0393165af18015611738577fc53cb8bc1a7200a84d0b66a538905a245c4915aace7f1ce5dc4a0ba107ebc15c915f905f92611e48575b50611e4360405192839283612a0f565b0390a2005b9050611e6691503d805f833e611e5e8183610474565b8101906128f1565b905f611e33565b85919350611e929060203d602011611e99575b611e8a8183610474565b810190612870565b9290611dc5565b503d611e80565b346103d65760206003193601126103d65760206106fb611963600435610d9b613f97565b346103d65760206003193601126103d657600435611ee1816103b8565b611ee9614321565b73ffffffffffffffffffffffffffffffffffffffff811615611f0e57610f0d90612a34565b60846040517f08c379a000000000000000000000000000000000000000000000000000000000815260206004820152602660248201527f4f776e61626c653a206e6577206f776e657220697320746865207a65726f206160448201527f64647265737300000000000000000000000000000000000000000000000000006064820152fd5b346103d6575f6003193601126103d65760206106fb614f32565b346103d657610878610868612054611fc33661074c565b8161085e73ffffffffffffffffffffffffffffffffffffffff969396959495808316805f5260fd60205260405f208054906001820190556040519160208301937f63ae75f148e3e5d376e66254575f23cf64979c3f62382d02bd9616f4f49dc49985528960408501528a166060840152608083015260a0820152606085013560c082015260c0815261084d81610458565b6130ef565b1561206057565b60846040517f08c379a000000000000000000000000000000000000000000000000000000000815260206004820152602e60248201527f496e697469616c697a61626c653a20636f6e747261637420697320616c72656160448201527f647920696e697469616c697a65640000000000000000000000000000000000006064820152fd5b604051906120f18261043c565b600182527f31000000000000000000000000000000000000000000000000000000000000006020830152565b919392909373ffffffffffffffffffffffffffffffffffffffff90818416156122365784156121d8576121d59561219f6121a49261215d6121cc97612a34565b6121917f00000000000000000000000000000000000000000000000000000000000000009661218b88612b2b565b82612bbd565b6121996120e4565b90612d24565b612e91565b7f00000000000000000000000000000000000000000000000000000000000000001690612f6e565b339030906130ef565b50565b60646040517f08c379a000000000000000000000000000000000000000000000000000000000815260206004820152601960248201527f5a45524f5f494e495449414c5f4c4f434b5f4445504f534954000000000000006044820152fd5b60646040517f08c379a000000000000000000000000000000000000000000000000000000000815260206004820152601660248201527f5a45524f5f414444524553535f4e4f545f56414c4944000000000000000000006044820152fd5b908160209103126103d6575190565b6040513d5f823e3d90fd5b7f4e487b71000000000000000000000000000000000000000000000000000000005f52601160045260245ffd5b91908203918211610c8857565b6040517f70a0823100000000000000000000000000000000000000000000000000000000815230600482015260208160248173ffffffffffffffffffffffffffffffffffffffff7f0000000000000000000000000000000000000000000000000000000000000000165afa908115611738575f91612376575b5061236a612571565b8103908111610c885790565b61238f915060203d602011611731576117228183610474565b5f612361565b90600182811c921680156123dc575b60208310146123af57565b7f4e487b71000000000000000000000000000000000000000000000000000000005f52602260045260245ffd5b91607f16916123a4565b604051905f8260cb54916123f983612395565b808352926020906001908181169081156124855750600114612426575b505061242492500383610474565b565b91509260cb5f527fa7ce836d032b2bf62b7e2097a8e0a6d8aeb35405ad15271e96d3b0188a1d06fb935f925b82841061246d57506124249450505081016020015f80612416565b85548885018301529485019487945092810192612452565b9050602093506124249592507fffffffffffffffffffffffffffffffffffffffffffffffffffffffffffffff0091501682840152151560051b8201015f80612416565b604051905f8260cc54916124db83612395565b80835292602090600190818116908115612485575060011461250557505061242492500383610474565b91509260cc5f527f47197230e1e4b29fc0bd84d7d78966c0925452aff72a2a121538b102457e9ebe935f925b82841061254c57506124249450505081016020015f80612416565b85548885018301529485019487945092810192612531565b91908201809211610c8857565b6040517f70a082310000000000000000000000000000000000000000000000000000000081523060048201526020816024817f000000000000000000000000000000000000000000000000000000000000000073ffffffffffffffffffffffffffffffffffffffff165afa908115611738575f91612643575b5060fe54906fffffffffffffffffffffffffffffffff8216908181111561263b5761261c6108d09392612632926122db565b60ff5460281c67ffffffffffffffff1690615017565b9060801c612564565b505060801c90565b61265c915060203d602011611731576117228183610474565b5f6125ea565b60ff60655460a01c1660ff8111610c885790565b67ffffffffffffffff811161041b5760051b60200190565b1561269557565b60646040517f08c379a000000000000000000000000000000000000000000000000000000000815260206004820152601160248201527f494e53554646494349454e545f464545530000000000000000000000000000006044820152fd5b6fffffffffffffffffffffffffffffffff9182169082160391908211610c8857565b908160209103126103d6575180151581036103d65790565b612735613999565b806127405750505f90565b73ffffffffffffffffffffffffffffffffffffffff6108d092165f52603360205261184060405f2054613604565b612776613999565b90816127825750505f90565b73ffffffffffffffffffffffffffffffffffffffff6127a36108d093613b7d565b91165f52603360205260405f205490613b40565b156127be57565b60646040517f08c379a000000000000000000000000000000000000000000000000000000000815260206004820152601c60248201527f43414e4e4f545f434c41494d5f544f5f5a45524f5f41444452455353000000006044820152fd5b604051906128298261043c565b6001825260203681840137565b8051156128435760200190565b7f4e487b71000000000000000000000000000000000000000000000000000000005f52603260045260245ffd5b908160209103126103d657516108d0816103b8565b5190612424826103b8565b9080601f830112156103d6578151906020916128ab81612676565b936128b96040519586610474565b81855260208086019260051b8201019283116103d657602001905b8282106128e2575050505090565b815181529083019083016128d4565b9190916040818403126103d65780519267ffffffffffffffff938481116103d65782019381601f860112156103d65784519460209561292f81612676565b9161293d6040519384610474565b818352878084019260051b820101918583116103d65788809201905b8382106129795750505050948301519081116103d6576108d09201612890565b8280918351612987816103b8565b815201910190612959565b9081518082526020808093019301915f5b8281106129b1575050505090565b835173ffffffffffffffffffffffffffffffffffffffff16855293810193928101926001016129a3565b9073ffffffffffffffffffffffffffffffffffffffff612a08602092959495604085526040850190612992565b9416910152565b9091612a266108d093604084526040840190612992565b9160208184039101526110af565b6097549073ffffffffffffffffffffffffffffffffffffffff80911691827fffffffffffffffffffffffff0000000000000000000000000000000000000000821617609755167f8be0079c531659141344cd1fd0a4f28419497f9722a3daafe3b4186f6b6457e05f80a3565b15612aa757565b60846040517f08c379a000000000000000000000000000000000000000000000000000000000815260206004820152602b60248201527f496e697469616c697a61626c653a20636f6e7472616374206973206e6f74206960448201527f6e697469616c697a696e670000000000000000000000000000000000000000006064820152fd5b612b4460ff5f5460081c16612b3f81612aa0565b612aa0565b612b4d81615547565b9015612bb457905b7fffffffffffffffffffffff00000000000000000000000000000000000000000074ff000000000000000000000000000000000000000073ffffffffffffffffffffffffffffffffffffffff60655493169360a01b1691161717606555565b50601290612b55565b612bd160ff5f5460081c16612b3f81612aa0565b80519067ffffffffffffffff821161041b57612bf782612bf2603654612395565b614605565b602090816001601f851114612c5e57509180612c4b9261242495945f92612c53575b50507fffffffffffffffffffffffffffffffffffffffffffffffffffffffffffffffff8260011b9260031b1c19161790565b6036556147b9565b015190505f80612c19565b60365f5291907fffffffffffffffffffffffffffffffffffffffffffffffffffffffffffffffe084167f4a11f94e20a93c79f6ec743a1954ec4fc2c08429ae2122118bf234b2185c81b8935f905b828210612d0c57505091600193918561242497969410612cd5575b505050811b016036556147b9565b01517fffffffffffffffffffffffffffffffffffffffffffffffffffffffffffffffff60f88460031b161c191690555f8080612cc7565b80600186978294978701518155019601940190612cac565b612d3860ff5f5460081c16612b3f81612aa0565b80519067ffffffffffffffff821161041b57612d5e82612d5960cb54612395565b614672565b602090816001601f851114612dcb57509180612db192612db995945f92612c535750507fffffffffffffffffffffffffffffffffffffffffffffffffffffffffffffffff8260011b9260031b1c19161790565b60cb556148f4565b612dc25f60c955565b6124245f60ca55565b60cb5f5291907fffffffffffffffffffffffffffffffffffffffffffffffffffffffffffffffe084167fa7ce836d032b2bf62b7e2097a8e0a6d8aeb35405ad15271e96d3b0188a1d06fb935f905b828210612e79575050916001939185612db997969410612e42575b505050811b0160cb556148f4565b01517fffffffffffffffffffffffffffffffffffffffffffffffffffffffffffffffff60f88460031b161c191690555f8080612e34565b80600186978294978701518155019601940190612e19565b670de0b6b3a76400008111612f105767ffffffffffffffff60ff546cffffffffffffffff00000000008360281b167fffffffffffffffffffffffffffffffffffffff0000000000000000ffffffffff82161760ff5560281c167f528d9479e9f9889a87a3c30c7f7ba537e5e59c4c85a37733b16e57c62df613025f80a3565b60646040517f08c379a000000000000000000000000000000000000000000000000000000000815260206004820152600c60248201527f4645455f544f4f5f4849474800000000000000000000000000000000000000006044820152fd5b6040517f095ea7b3000000000000000000000000000000000000000000000000000000006020820181815273ffffffffffffffffffffffffffffffffffffffff851660248401527fffffffffffffffffffffffffffffffffffffffffffffffffffffffffffffffff604480850191909152835290939192917fffffffffffffffffffffffffffffffffffffffffffffffffffffffffffffffe091613013606486610474565b5f8073ffffffffffffffffffffffffffffffffffffffff86169287519082855af19061303d614a2f565b826130bd575b50816130b2575b5015613058575b5050505050565b604051602081019590955273ffffffffffffffffffffffffffffffffffffffff1660248501525f6044850152606490810184526130a8936130a39161309d9082610474565b82614a5e565b614a5e565b5f80808080613051565b90503b15155f61304a565b805191925081159182156130d5575b5050905f613043565b6130e89250602080918301019101612715565b5f806130cc565b9190916130fa613f97565b81116131845761310c906119636143c4565b918215613126576108d091836131218161362f565b614d16565b60646040517f08c379a000000000000000000000000000000000000000000000000000000000815260206004820152600b60248201527f5a45524f5f5348415245530000000000000000000000000000000000000000006044820152fd5b60646040517f08c379a000000000000000000000000000000000000000000000000000000000815260206004820152601360248201527f4445504f5349545f455843454544535f4d4158000000000000000000000000006044820152fd5b6131f1909291926119636143c4565b918215613126576108d091836132068161362f565b614b7d565b6040519060208201927f1901000000000000000000000000000000000000000000000000000000000000845260228301526042820152604281526080810181811067ffffffffffffffff82111761041b5760405251902090565b1561326c57565b60646040517f08c379a000000000000000000000000000000000000000000000000000000000815260206004820152600b60248201527f5349475f455850495245440000000000000000000000000000000000000000006044820152fd5b3560ff811681036103d65790565b156132df57565b60646040517f08c379a000000000000000000000000000000000000000000000000000000000815260206004820152600b60248201527f5349475f494e56414c49440000000000000000000000000000000000000000006044820152fd5b908160209103126103d657517fffffffff00000000000000000000000000000000000000000000000000000000811681036103d65790565b6040906108d093928152816020820152019061087c565b909161339e4260608301351015613265565b823b156134c25761345273ffffffffffffffffffffffffffffffffffffffff938261341b6133cd6020956132ca565b604080518785013588820190815294820135602086015260f89290921b7fff000000000000000000000000000000000000000000000000000000000000001690840152918290604101611ac8565b6040519586809481937f1626ba7e000000000000000000000000000000000000000000000000000000009889845260048401613375565b0392165afa91821561173857612424927fffffffff00000000000000000000000000000000000000000000000000000000915f91613493575b5016146132d8565b6134b5915060203d6020116134bb575b6134ad8183610474565b81019061333d565b5f61348b565b503d6134a3565b602091816134fe6134d35f946132ca565b6040805194855260ff9091166020850152858301358482015290910135606083015281906080820190565b838052039060015afa15611738576124249073ffffffffffffffffffffffffffffffffffffffff805f511690811515928361353c575b5050506132d8565b161490505f8080613534565b91906108d0916135566143c4565b61355f8461362f565b9384614b7d565b9190613573611963613f97565b8311613595576108d0916135856143c4565b61358e8461362f565b9384614d16565b60646040517f08c379a000000000000000000000000000000000000000000000000000000000815260206004820152601060248201527f4d494e545f455843454544535f4d4158000000000000000000000000000000006044820152fd5b60ff16604d8111610c8857600a0a90565b61360c6122e8565b60018101809111610c88576035549060018201809211610c88576108d0926150ab565b6136376122e8565b60018101809111610c88576035549060018201809211610c88576108d092613f55565b9073ffffffffffffffffffffffffffffffffffffffff9182811692831561379257821693841561370e57806136f87f8c5be1e5ebec7d5bd14f71427d1e84f3dd0314c0f7b2291e5b200ac8c7c3b925946136d56137099573ffffffffffffffffffffffffffffffffffffffff165f52603460205260405f2090565b9073ffffffffffffffffffffffffffffffffffffffff165f5260205260405f2090565b556040519081529081906020820190565b0390a3565b60846040517f08c379a000000000000000000000000000000000000000000000000000000000815260206004820152602260248201527f45524332303a20617070726f766520746f20746865207a65726f20616464726560448201527f73730000000000000000000000000000000000000000000000000000000000006064820152fd5b60846040517f08c379a0000000000000000000000000000000000000000000000000000000008152602060048201526024808201527f45524332303a20617070726f76652066726f6d20746865207a65726f2061646460448201527f72657373000000000000000000000000000000000000000000000000000000006064820152fd5b91908260209103126103d6576040516020810181811067ffffffffffffffff82111761041b5760405291518252565b51906fffffffffffffffffffffffffffffffff821682036103d657565b519064ffffffffff821682036103d657565b519061ffff821682036103d657565b6101e0818303126103d65761389f6138986104b5565b9282613815565b82526138ad60208201613844565b60208301526138be60408201613844565b60408301526138cf60608201613844565b60608301526138e060808201613844565b60808301526138f160a08201613844565b60a083015261390260c08201613861565b60c083015261391360e08201613873565b60e0830152610100613926818301612885565b90830152610120613938818301612885565b9083015261014061394a818301612885565b9083015261016061395c818301612885565b9083015261018061396e818301613844565b908301526101a0613980818301613844565b908301526139926101c0809201613844565b9082015290565b6040517f35ea6a7500000000000000000000000000000000000000000000000000000000815273ffffffffffffffffffffffffffffffffffffffff7f000000000000000000000000000000000000000000000000000000000000000081166004830181905290916101e09081816024817f000000000000000000000000000000000000000000000000000000000000000088165afa918215611738575f92613b13575b50505151670100000000000000811615908115613aff575b5015613a605750505f90565b6040517f70a082310000000000000000000000000000000000000000000000000000000081527f00000000000000000000000000000000000000000000000000000000000000009290921673ffffffffffffffffffffffffffffffffffffffff166004830152602090829081806024810103915afa908115611738575f91613ae6575090565b6108d0915060203d602011611731576117228183610474565b67100000000000000091501615155f613a54565b613b329250803d10613b39575b613b2a8183610474565b810190613882565b5f80613a3c565b503d613b20565b9080821015613b4d575090565b905090565b60355460018101809111610c8857613b686122e8565b9060018201809211610c88576108d092613f55565b60355460018101809111610c8857613b936122e8565b9060018201809211610c88576108d0926150ab565b9073ffffffffffffffffffffffffffffffffffffffff82165f526034602052613bf28160405f209073ffffffffffffffffffffffffffffffffffffffff165f5260205260405f2090565b54927fffffffffffffffffffffffffffffffffffffffffffffffffffffffffffffffff8403613c22575b50505050565b808410613c3d57613c3493039161365a565b5f808080613c1c565b60646040517f08c379a000000000000000000000000000000000000000000000000000000000815260206004820152601d60248201527f45524332303a20696e73756666696369656e7420616c6c6f77616e63650000006044820152fd5b15613ca257565b60846040517f08c379a000000000000000000000000000000000000000000000000000000000815260206004820152602360248201527f45524332303a207472616e7366657220746f20746865207a65726f206164647260448201527f65737300000000000000000000000000000000000000000000000000000000006064820152fd5b15613d2d57565b60846040517f08c379a000000000000000000000000000000000000000000000000000000000815260206004820152602660248201527f45524332303a207472616e7366657220616d6f756e742065786365656473206260448201527f616c616e636500000000000000000000000000000000000000000000000000006064820152fd5b919073ffffffffffffffffffffffffffffffffffffffff90818416928315613ea457613e8e827fddf252ad1be2c89b69c2b068fc378daa952ba7f163c4a11628f55a4df523b3ef94613709941696613e0a881515613c9b565b613e6984613e368373ffffffffffffffffffffffffffffffffffffffff165f52603360205260405f2090565b54613e4382821015613d26565b039173ffffffffffffffffffffffffffffffffffffffff165f52603360205260405f2090565b5573ffffffffffffffffffffffffffffffffffffffff165f52603360205260405f2090565b8054820190556040519081529081906020820190565b60846040517f08c379a000000000000000000000000000000000000000000000000000000000815260206004820152602560248201527f45524332303a207472616e736665722066726f6d20746865207a65726f20616460448201527f64726573730000000000000000000000000000000000000000000000000000006064820152fd5b7f4e487b71000000000000000000000000000000000000000000000000000000005f52601260045260245ffd5b9190613f628282856150ab565b928215613f7f5709613f715790565b60018101809111610c885790565b613f28565b81810292918115918404141715610c8857565b6040517f35ea6a7500000000000000000000000000000000000000000000000000000000815273ffffffffffffffffffffffffffffffffffffffff7f000000000000000000000000000000000000000000000000000000000000000081166004830152906101e09081816024817f000000000000000000000000000000000000000000000000000000000000000087165afa918215611738575f926141e0575b505080515191640fffffffff8360741c16926701000000000000008116159081156141cc575b81156141b8575b5015614071575050505f90565b8261409d575050507fffffffffffffffffffffffffffffffffffffffffffffffffffffffffffffffff90565b6020600491604051928380927fb1bf962d0000000000000000000000000000000000000000000000000000000082527f0000000000000000000000000000000000000000000000000000000000000000165afa91821561173857614166614133602061414e6141839661416c965f9161419b575b506141486141336101808801516fffffffffffffffffffffffffffffffff1690565b6fffffffffffffffffffffffffffffffff1690565b90612564565b9301516fffffffffffffffffffffffffffffffff1690565b90615150565b9161417d614178612662565b6135f3565b90613f84565b9080821115614195576108d0916122db565b50505f90565b6141b29150833d8511611731576117228183610474565b5f614111565b67100000000000000091501615155f614064565b67020000000000000081161515915061405d565b6141f69250803d10613b3957613b2a8183610474565b5f80614037565b9192906142086143c4565b6142118461276e565b831161428f5761422083613604565b938415614231576108d0938561519f565b60646040517f08c379a000000000000000000000000000000000000000000000000000000000815260206004820152600b60248201527f5a45524f5f4153534554530000000000000000000000000000000000000000006044820152fd5b60646040517f08c379a000000000000000000000000000000000000000000000000000000000815260206004820152601260248201527f52454445454d5f455843454544535f4d415800000000000000000000000000006044820152fd5b9192906142f86143c4565b6143018461276e565b831161428f5761431083613604565b938415614231576108d09385615368565b73ffffffffffffffffffffffffffffffffffffffff60975416330361434257565b60646040517f08c379a000000000000000000000000000000000000000000000000000000000815260206004820152602060248201527f4f776e61626c653a2063616c6c6572206973206e6f7420746865206f776e65726044820152fd5b9190916fffffffffffffffffffffffffffffffff80809416911601918211610c8857565b6040517f70a082310000000000000000000000000000000000000000000000000000000081523060048201526020816024817f000000000000000000000000000000000000000000000000000000000000000073ffffffffffffffffffffffffffffffffffffffff165afa908115611738575f9161452e575b5060fe546fffffffffffffffffffffffffffffffff80821680841115613c1c578361450c61448f614529937fd3bca34d88bc8c8d0d3304ca482da710a7f673bcd8e764fdae6f4f2b66bb315d976122db565b936144cd61155c6144c067ffffffffffffffff6144b960ff5467ffffffffffffffff9060281c1690565b1688615017565b978389169060801c6143a0565b82166fffffffffffffffffffffffffffffffff167fffffffffffffffffffffffffffffffff0000000000000000000000000000000060fe54161760fe55565b604051938493846040919493926060820195825260208201520152565b0390a1565b614547915060203d602011611731576117228183610474565b5f61443d565b92906145576143c4565b6145608361272d565b841161457a576108d09261457385613b52565b809561519f565b60646040517f08c379a000000000000000000000000000000000000000000000000000000000815260206004820152601460248201527f57495448445241575f455843454544535f4d41580000000000000000000000006044820152fd5b92906145e26143c4565b6145eb8361272d565b841161457a576108d0926145fe85613b52565b8095615368565b601f8111614611575050565b60365f527f4a11f94e20a93c79f6ec743a1954ec4fc2c08429ae2122118bf234b2185c81b8906020601f840160051c83019310614668575b601f0160051c01905b81811061465d575050565b5f8155600101614652565b9091508190614649565b601f811161467e575050565b60cb5f527fa7ce836d032b2bf62b7e2097a8e0a6d8aeb35405ad15271e96d3b0188a1d06fb906020601f840160051c830193106146d5575b601f0160051c01905b8181106146ca575050565b5f81556001016146bf565b90915081906146b6565b601f81116146eb575050565b60375f527f42a7b7dd785cd69714a189dffb3fd7d7174edc9ece837694ce50f7078f7c31ae906020601f840160051c83019310614742575b601f0160051c01905b818110614737575050565b5f815560010161472c565b9091508190614723565b601f8111614758575050565b60cc5f527f47197230e1e4b29fc0bd84d7d78966c0925452aff72a2a121538b102457e9ebe906020601f840160051c830193106147af575b601f0160051c01905b8181106147a4575050565b5f8155600101614799565b9091508190614790565b90815167ffffffffffffffff811161041b576147df816147da603754612395565b6146df565b602080601f83116001146148325750819061482d93945f92612c535750507fffffffffffffffffffffffffffffffffffffffffffffffffffffffffffffffff8260011b9260031b1c19161790565b603755565b907fffffffffffffffffffffffffffffffffffffffffffffffffffffffffffffffe083169461488260375f527f42a7b7dd785cd69714a189dffb3fd7d7174edc9ece837694ce50f7078f7c31ae90565b925f905b8782106148dc5750508360019596106148a5575b505050811b01603755565b01517fffffffffffffffffffffffffffffffffffffffffffffffffffffffffffffffff60f88460031b161c191690555f808061489a565b80600185968294968601518155019501930190614886565b90815167ffffffffffffffff811161041b5761491a8161491560cc54612395565b61474c565b602080601f831160011461496d5750819061496893945f92612c535750507fffffffffffffffffffffffffffffffffffffffffffffffffffffffffffffffff8260011b9260031b1c19161790565b60cc55565b907fffffffffffffffffffffffffffffffffffffffffffffffffffffffffffffffe08316946149bd60cc5f527f47197230e1e4b29fc0bd84d7d78966c0925452aff72a2a121538b102457e9ebe90565b925f905b878210614a175750508360019596106149e0575b505050811b0160cc55565b01517fffffffffffffffffffffffffffffffffffffffffffffffffffffffffffffffff60f88460031b161c191690555f80806149d5565b806001859682949686015181550195019301906149c1565b3d15614a59573d90614a40826104d6565b91614a4e6040519384610474565b82523d5f602084013e565b606090565b604051614ac89173ffffffffffffffffffffffffffffffffffffffff16614a848261043c565b5f806020958685527f5361666545524332303a206c6f772d6c6576656c2063616c6c206661696c656487860152868151910182855af1614ac2614a2f565b91615964565b805190828215928315614b65575b50505015614ae15750565b608490604051907f08c379a00000000000000000000000000000000000000000000000000000000082526004820152602a60248201527f5361666545524332303a204552433230206f7065726174696f6e20646964206e60448201527f6f742073756363656564000000000000000000000000000000000000000000006064820152fd5b614b759350820181019101612715565b5f8281614ad6565b6040517f23b872dd00000000000000000000000000000000000000000000000000000000815273ffffffffffffffffffffffffffffffffffffffff848116600483015230602483015260448201839052939491936020939092917f00000000000000000000000000000000000000000000000000000000000000008416919085816064815f875af1801561173857614cf9575b506040517f70a08231000000000000000000000000000000000000000000000000000000008152306004820152918590839060249082905afa918215611738576fffffffffffffffffffffffffffffffff61370993614cd1927fdcbc1c05240f31ff3ad067ef1ee35ce4997762752e3a095284754544f4c709d7985f9261170b575050166fffffffffffffffffffffffffffffffff167fffffffffffffffffffffffffffffffff0000000000000000000000000000000060fe54161760fe55565b614cdb8184615652565b83604051948594169716958360209093929193604081019481520152565b614d0f90863d8811611763576117548183610474565b505f614c10565b91927f000000000000000000000000000000000000000000000000000000000000000090614d46843087856155e8565b73ffffffffffffffffffffffffffffffffffffffff91827f000000000000000000000000000000000000000000000000000000000000000016803b156103d6576040517f617ba03700000000000000000000000000000000000000000000000000000000815291841673ffffffffffffffffffffffffffffffffffffffff166004830152602482018690523060448301527f000000000000000000000000000000000000000000000000000000000000000061ffff1660648301525f9082908183816084810103925af1801561173857614f19575b506040517f70a082310000000000000000000000000000000000000000000000000000000081523060048201526020816024817f000000000000000000000000000000000000000000000000000000000000000087165afa93841561173857614cd16fffffffffffffffffffffffffffffffff7fdcbc1c05240f31ff3ad067ef1ee35ce4997762752e3a095284754544f4c709d796613709945f91614efa575b50166fffffffffffffffffffffffffffffffff167fffffffffffffffffffffffffffffffff0000000000000000000000000000000060fe54161760fe55565b614f13915060203d602011611731576117228183610474565b5f614ebb565b80614f26614f2c92610407565b806106d7565b5f614e1b565b614f3a61573d565b614f42615788565b6040519060208201927f8b73c3c69bb8fe3d512ecc4cf759cc79239f7b179b0ffacaa9a75d522b39400f8452604083015260608201524660808201523060a082015260a0815260c0810181811067ffffffffffffffff82111761041b5760405251902090565b8115613f7f570490565b15614fb957565b60646040517f08c379a000000000000000000000000000000000000000000000000000000000815260206004820152601560248201527f4d6174683a206d756c446976206f766572666c6f7700000000000000000000006044820152fd5b7fffffffffffffffffffffffffffffffffffffffffffffffffffffffffffffffff8282098282029182808310920391808303921461509a577faccb18165bd6fe31ae1cf318dc5b51eee0e1ba569b88cd74c1773b91fac1066993670de0b6b3a764000091615086848411614fb2565b0990828211900360ee1b910360121c170290565b5050670de0b6b3a764000091500490565b90917fffffffffffffffffffffffffffffffffffffffffffffffffffffffffffffffff8383099280830292838086109503948086039514615143579082916150f4868411614fb2565b0960018219018216809204600280826003021880830282030280830282030280830282030280830282030280830282030280920290030293600183805f03040190848311900302920304170290565b5050906108d09250614fa8565b817ffffffffffffffffffffffffffffffffffffffffffe6268e1b017bfe18bffffff04811115821517156103d6576b033b2e3c9fd0803ce800000091026b019d971e4fe8401e74000000010490565b9293919373ffffffffffffffffffffffffffffffffffffffff906151d5838388169784871696828a8903615357575b50506157ae565b6040517fa9059cbb00000000000000000000000000000000000000000000000000000000815273ffffffffffffffffffffffffffffffffffffffff82166004820152602481018690526020937f000000000000000000000000000000000000000000000000000000000000000084169185816044815f875af180156117385761533a575b506040517f70a08231000000000000000000000000000000000000000000000000000000008152306004820152918590839060249082905afa918215611738576fffffffffffffffffffffffffffffffff6153359361531a927ffbde797d201c681b91056529119e0b02407c7bb96a4a2c75c01fc9667232c8db985f9261170b575050166fffffffffffffffffffffffffffffffff167fffffffffffffffffffffffffffffffff0000000000000000000000000000000060fe54161760fe55565b60405193849316968360209093929193604081019481520152565b0390a4565b61535090863d8811611763576117548183610474565b505f615259565b6153619183613ba8565b5f826151ce565b9293919373ffffffffffffffffffffffffffffffffffffffff9061539d838388169784871696828a89036153575750506157ae565b6040517f69328dec00000000000000000000000000000000000000000000000000000000815273ffffffffffffffffffffffffffffffffffffffff7f000000000000000000000000000000000000000000000000000000000000000084168116600483015260248201879052821660448201526020939084816064815f7f000000000000000000000000000000000000000000000000000000000000000089165af180156117385761552a575b506040517f70a082310000000000000000000000000000000000000000000000000000000081523060048201529084826024817f000000000000000000000000000000000000000000000000000000000000000088165afa918215611738576fffffffffffffffffffffffffffffffff6153359361531a927ffbde797d201c681b91056529119e0b02407c7bb96a4a2c75c01fc9667232c8db985f9261170b575050166fffffffffffffffffffffffffffffffff167fffffffffffffffffffffffffffffffff0000000000000000000000000000000060fe54161760fe55565b61554090853d8711611731576117228183610474565b505f61544a565b5f809160405173ffffffffffffffffffffffffffffffffffffffff60208201917f313ce567000000000000000000000000000000000000000000000000000000008352600481526155978161043c565b5192165afa6155a4614a2f565b90806155dc575b6155b7575b505f905f90565b806020806155ca93518301019101612294565b60ff81116155b0579060ff6001921690565b506020815110156155ab565b6040517f23b872dd00000000000000000000000000000000000000000000000000000000602082015273ffffffffffffffffffffffffffffffffffffffff9283166024820152929091166044830152606480830193909352918152612424916130a3608483610474565b9073ffffffffffffffffffffffffffffffffffffffff82169182156156df5760355490828201809211610c88575f926156d06020927fddf252ad1be2c89b69c2b068fc378daa952ba7f163c4a11628f55a4df523b3ef9460355573ffffffffffffffffffffffffffffffffffffffff165f52603360205260405f2090565b818154019055604051908152a3565b60646040517f08c379a000000000000000000000000000000000000000000000000000000000815260206004820152601f60248201527f45524332303a206d696e7420746f20746865207a65726f2061646472657373006044820152fd5b6157456123e6565b8051908115615755576020012090565b505060c95480156157635790565b507fc5d2460186f7233c927e7db2dcc703c0e500b653ca82273b7bfad8045d85a47090565b6157906124c8565b80519081156157a0576020012090565b505060ca5480156157635790565b73ffffffffffffffffffffffffffffffffffffffff81169081156158e0576157f48173ffffffffffffffffffffffffffffffffffffffff165f52603360205260405f2090565b5483811061585c57837fddf252ad1be2c89b69c2b068fc378daa952ba7f163c4a11628f55a4df523b3ef9261584e5f9661370994039173ffffffffffffffffffffffffffffffffffffffff165f52603360205260405f2090565b556108688160355403603555565b60846040517f08c379a000000000000000000000000000000000000000000000000000000000815260206004820152602260248201527f45524332303a206275726e20616d6f756e7420657863656564732062616c616e60448201527f63650000000000000000000000000000000000000000000000000000000000006064820152fd5b60846040517f08c379a000000000000000000000000000000000000000000000000000000000815260206004820152602160248201527f45524332303a206275726e2066726f6d20746865207a65726f2061646472657360448201527f73000000000000000000000000000000000000000000000000000000000000006064820152fd5b919290156159df5750815115615978575090565b3b156159815790565b60646040517f08c379a000000000000000000000000000000000000000000000000000000000815260206004820152601d60248201527f416464726573733a2063616c6c20746f206e6f6e2d636f6e74726163740000006044820152fd5b8251909150156159f25750805190602001fd5b615a28906040519182917f08c379a0000000000000000000000000000000000000000000000000000000008352600483016108bf565b0390fdfea2646970667358221220141ec055d87fbf53716b82011659f5dbcb4f50ed9bdb2c9b0099b68d50983a2064736f6c63430008190033","linkReferences":{}},"methodIdentifiers":{"AAVE_POOL()":"08a01675","ATOKEN()":"51c0e061","POOL_ADDRESSES_PROVIDER()":"311cd5a4","REFERRAL_CODE()":"3583849a","UNDERLYING()":"c5d664c6","allowance(address,address)":"dd62ed3e","approve(address,uint256)":"095ea7b3","asset()":"38d52e0f","balanceOf(address)":"70a08231","claimRewards(address)":"ef5cfb8c","convertToAssets(uint256)":"07a2d13a","convertToShares(uint256)":"c6e6f592","decimals()":"313ce567","decreaseAllowance(address,uint256)":"a457c2d7","deposit(uint256,address)":"6e553f65","depositATokens(uint256,address)":"e25ec349","depositATokensWithSig(uint256,address,address,(uint8,bytes32,bytes32,uint256))":"7fc1664a","depositWithSig(uint256,address,address,(uint8,bytes32,bytes32,uint256))":"ffd7d21f","domainSeparator()":"f698da25","eip712Domain()":"84b0196e","emergencyRescue(address,address,uint256)":"d687d0b3","getClaimableFees()":"274f0e24","getFee()":"ced72f87","getLastVaultBalance()":"bddd09b7","getSigNonce(address)":"05ac0ab4","increaseAllowance(address,uint256)":"39509351","initialize(address,uint256,string,string,uint256)":"008b187b","maxDeposit(address)":"402d267d","maxMint(address)":"c63d75b6","maxRedeem(address)":"d905777e","maxWithdraw(address)":"ce96cb77","mint(uint256,address)":"94bf804d","mintWithATokens(uint256,address)":"bfedc2be","mintWithATokensWithSig(uint256,address,address,(uint8,bytes32,bytes32,uint256))":"0634d4e9","mintWithSig(uint256,address,address,(uint8,bytes32,bytes32,uint256))":"9d3ebd94","name()":"06fdde03","owner()":"8da5cb5b","previewDeposit(uint256)":"ef8b30f7","previewMint(uint256)":"b3d7f6b9","previewRedeem(uint256)":"4cdad506","previewWithdraw(uint256)":"0a28a477","redeem(uint256,address,address)":"ba087652","redeemAsATokens(uint256,address,address)":"5be35e1a","redeemWithATokensWithSig(uint256,address,address,(uint8,bytes32,bytes32,uint256))":"403c02d0","redeemWithSig(uint256,address,address,(uint8,bytes32,bytes32,uint256))":"6738445e","renounceOwnership()":"715018a6","setFee(uint256)":"69fe0e2d","symbol()":"95d89b41","totalAssets()":"01e1d114","totalSupply()":"18160ddd","transfer(address,uint256)":"a9059cbb","transferFrom(address,address,uint256)":"23b872dd","transferOwnership(address)":"f2fde38b","withdraw(uint256,address,address)":"b460af94","withdrawATokens(uint256,address,address)":"c7df1f56","withdrawATokensWithSig(uint256,address,address,(uint8,bytes32,bytes32,uint256))":"b344ed03","withdrawFees(address,uint256)":"ad3b1b47","withdrawWithSig(uint256,address,address,(uint8,bytes32,bytes32,uint256))":"ee4535ba"},"id":72}